{
  "contractName": "ToDoList",
  "abi": [
    {
      "constant": true,
      "inputs": [
        {
          "internalType": "uint256",
          "name": "",
          "type": "uint256"
        }
      ],
      "name": "todos",
      "outputs": [
        {
          "internalType": "bytes32",
          "name": "task",
          "type": "bytes32"
        },
        {
          "internalType": "bool",
          "name": "isDone",
          "type": "bool"
        }
      ],
      "payable": false,
      "stateMutability": "view",
      "type": "function"
    },
    {
      "constant": false,
      "inputs": [
        {
          "internalType": "bytes32",
          "name": "task",
          "type": "bytes32"
        },
        {
          "internalType": "bool",
          "name": "isDone",
          "type": "bool"
        }
      ],
      "name": "addToDo",
      "outputs": [
        {
          "internalType": "bool",
          "name": "success",
          "type": "bool"
        }
      ],
      "payable": false,
      "stateMutability": "nonpayable",
      "type": "function"
    },
    {
      "constant": false,
      "inputs": [],
      "name": "getTodos",
      "outputs": [
        {
          "internalType": "bytes32[]",
          "name": "",
          "type": "bytes32[]"
        },
        {
          "internalType": "bool[]",
          "name": "",
          "type": "bool[]"
        }
      ],
      "payable": false,
      "stateMutability": "nonpayable",
      "type": "function"
    },
    {
      "constant": false,
      "inputs": [
        {
          "internalType": "uint256",
          "name": "index",
          "type": "uint256"
        }
      ],
      "name": "deleteToDo",
      "outputs": [
        {
          "internalType": "bool",
          "name": "success",
          "type": "bool"
        }
      ],
      "payable": false,
      "stateMutability": "nonpayable",
      "type": "function"
    }
  ],
  "bytecode": "0x608060405234801561001057600080fd5b5061047b806100206000396000f3fe608060405234801561001057600080fd5b506004361061004b5760003560e01c8062e3daa614610050578063549fd151146100a2578063bc8bc2b4146100e8578063c33926cb14610135575b600080fd5b6100886004803603604081101561006657600080fd5b81019080803590602001909291908035151590602001909291905050506101dc565b604051808215151515815260200191505060405180910390f35b6100ce600480360360208110156100b857600080fd5b8101908080359060200190929190505050610266565b604051808215151515815260200191505060405180910390f35b610114600480360360208110156100fe57600080fd5b81019080803590602001909291905050506102c6565b60405180838152602001821515151581526020019250505060405180910390f35b61013d610304565b604051808060200180602001838103835285818151815260200191508051906020019060200280838360005b83811015610184578082015181840152602081019050610169565b50505050905001838103825284818151815260200191508051906020019060200280838360005b838110156101c65780820151818401526020810190506101ab565b5050505090500194505050505060405180910390f35b60006101e6610427565b8381600001818152505082816020019015159081151581525050600081908060018154018082558091505090600182039060005260206000209060020201600090919290919091506000820151816000015560208201518160010160006101000a81548160ff021916908315150217905550505050600191505092915050565b60008080549050821061027c57600090506102c1565b60008290506000818154811061028e57fe5b90600052602060002090600202016000808201600090556001820160006101000a81549060ff0219169055505060019150505b919050565b600081815481106102d357fe5b90600052602060002090600202016000915090508060000154908060010160009054906101000a900460ff16905082565b6060806000808054905090506060816040519080825280602002602001820160405280156103415781602001602082028038833980820191505090505b5090506060826040519080825280602002602001820160405280156103755781602001602082028038833980820191505090505b50905060008090505b600080549050811015610419576000818154811061039857fe5b9060005260206000209060020201600001548382815181106103b657fe5b602002602001018181525050600081815481106103cf57fe5b906000526020600020906002020160010160009054906101000a900460ff168282815181106103fa57fe5b602002602001019015159081151581525050808060010191505061037e565b828295509550505050509091565b604051806040016040528060008019168152602001600015158152509056fea265627a7a72315820d6a64b9a18270f02e625174feb62542546d349d31ec8b006a060d543525e7f1464736f6c63430005100032",
  "source": "// SPDX-License-Identifier: MIT\r\npragma solidity >=0.4.22 <0.9.0;\r\n\r\ncontract ToDoList {\r\n\r\n    struct ToDo {\r\n        bytes32 task;\r\n        bool isDone;\r\n    }\r\n\r\n    ToDo[] public todos;\r\n\r\n    function addToDo(bytes32 task, bool isDone) public returns (bool success){\r\n        ToDo memory item;\r\n        item.task = task;\r\n        item.isDone = isDone;\r\n\r\n        todos.push(item);\r\n        return true;\r\n    }\r\n\r\n    function getTodos() public returns (bytes32[] memory, bool[] memory){\r\n        uint length = todos.length;\r\n\r\n        bytes32[] memory taskList = new bytes32[](length);\r\n        bool[] memory isDoneList = new bool[](length);\r\n\r\n        uint i = 0;\r\n\r\n        for (i; i < todos.length; i++){\r\n            taskList[i] = todos[i].task;\r\n            isDoneList[i] = todos[i].isDone;\r\n        }\r\n\r\n        return(taskList, isDoneList);\r\n    }\r\n\r\n    function deleteToDo(uint index) public returns (bool success){\r\n        if (index>=todos.length) return false;\r\n        uint i = index;\r\n\r\n        // for (i; i < todos.length - 1; i++){\r\n        //     todos[i] = todos[i+1];\r\n        // }\r\n\r\n        delete todos[i];\r\n        return true;\r\n    }\r\n}",
  "sourcePath": "C:\\Users\\Administrador\\Desktop\\GitHub\\Solidity-Playground\\src\\contracts\\ToDoList.sol",
  "compiler": {
    "name": "solc",
    "version": "0.5.16+commit.9c3226ce.Emscripten.clang"
  },
  "schemaVersion": "3.4.3",
  "updatedAt": "2021-12-18T21:45:48.589Z",
  "devdoc": {
    "methods": {}
  },
  "userdoc": {
    "methods": {}
  }
}