{
  "contractName": "ToDoList",
  "abi": [
    {
      "inputs": [
        {
          "internalType": "uint256",
          "name": "",
          "type": "uint256"
        }
      ],
      "name": "todos",
      "outputs": [
        {
          "internalType": "bytes32",
          "name": "task",
          "type": "bytes32"
        },
        {
          "internalType": "bool",
          "name": "isDone",
          "type": "bool"
        }
      ],
      "stateMutability": "view",
      "type": "function"
    },
    {
      "inputs": [
        {
          "internalType": "bytes32",
          "name": "task",
          "type": "bytes32"
        },
        {
          "internalType": "bool",
          "name": "isDone",
          "type": "bool"
        }
      ],
      "name": "addToDo",
      "outputs": [
        {
          "internalType": "bool",
          "name": "success",
          "type": "bool"
        }
      ],
      "stateMutability": "nonpayable",
      "type": "function"
    },
    {
      "inputs": [],
      "name": "getTodos",
      "outputs": [
        {
          "internalType": "bytes32[]",
          "name": "",
          "type": "bytes32[]"
        },
        {
          "internalType": "bool[]",
          "name": "",
          "type": "bool[]"
        }
      ],
      "stateMutability": "nonpayable",
      "type": "function"
    },
    {
      "inputs": [
        {
          "internalType": "uint256",
          "name": "index",
          "type": "uint256"
        }
      ],
      "name": "deleteToDo",
      "outputs": [
        {
          "internalType": "bool",
          "name": "success",
          "type": "bool"
        }
      ],
      "stateMutability": "nonpayable",
      "type": "function"
    }
  ],
  "bytecode": "0x608060405234801561001057600080fd5b506107f9806100206000396000f3fe608060405234801561001057600080fd5b506004361061004b5760003560e01c8062e3daa614610050578063549fd15114610080578063bc8bc2b4146100b0578063c33926cb146100e1575b600080fd5b61006a60048036038101906100659190610435565b610100565b6040516100779190610484565b60405180910390f35b61009a600480360381019061009591906104d5565b610187565b6040516100a79190610484565b60405180910390f35b6100ca60048036038101906100c591906104d5565b6101ee565b6040516100d8929190610511565b60405180910390f35b6100e961022f565b6040516100f79291906106b6565b60405180910390f35b600061010a6103a3565b838160000181815250508281602001901515908115158152505060008190806001815401808255809150506001900390600052602060002090600202016000909190919091506000820151816000015560208201518160010160006101000a81548160ff0219169083151502179055505050600191505092915050565b60008080549050821061019d57600090506101e9565b6000829050600081815481106101b6576101b56106ed565b5b90600052602060002090600202016000808201600090556001820160006101000a81549060ff0219169055505060019150505b919050565b600081815481106101fe57600080fd5b90600052602060002090600202016000915090508060000154908060010160009054906101000a900460ff16905082565b60608060008080549050905060008167ffffffffffffffff8111156102575761025661071c565b5b6040519080825280602002602001820160405280156102855781602001602082028036833780820191505090505b50905060008267ffffffffffffffff8111156102a4576102a361071c565b5b6040519080825280602002602001820160405280156102d25781602001602082028036833780820191505090505b50905060005b60008054905081101561039557600081815481106102f9576102f86106ed565b5b90600052602060002090600202016000015483828151811061031e5761031d6106ed565b5b6020026020010181815250506000818154811061033e5761033d6106ed565b5b906000526020600020906002020160010160009054906101000a900460ff168282815181106103705761036f6106ed565b5b602002602001019015159081151581525050808061038d9061077a565b9150506102d8565b828295509550505050509091565b6040518060400160405280600080191681526020016000151581525090565b600080fd5b6000819050919050565b6103da816103c7565b81146103e557600080fd5b50565b6000813590506103f7816103d1565b92915050565b60008115159050919050565b610412816103fd565b811461041d57600080fd5b50565b60008135905061042f81610409565b92915050565b6000806040838503121561044c5761044b6103c2565b5b600061045a858286016103e8565b925050602061046b85828601610420565b9150509250929050565b61047e816103fd565b82525050565b60006020820190506104996000830184610475565b92915050565b6000819050919050565b6104b28161049f565b81146104bd57600080fd5b50565b6000813590506104cf816104a9565b92915050565b6000602082840312156104eb576104ea6103c2565b5b60006104f9848285016104c0565b91505092915050565b61050b816103c7565b82525050565b60006040820190506105266000830185610502565b6105336020830184610475565b9392505050565b600081519050919050565b600082825260208201905092915050565b6000819050602082019050919050565b61056f816103c7565b82525050565b60006105818383610566565b60208301905092915050565b6000602082019050919050565b60006105a58261053a565b6105af8185610545565b93506105ba83610556565b8060005b838110156105eb5781516105d28882610575565b97506105dd8361058d565b9250506001810190506105be565b5085935050505092915050565b600081519050919050565b600082825260208201905092915050565b6000819050602082019050919050565b61062d816103fd565b82525050565b600061063f8383610624565b60208301905092915050565b6000602082019050919050565b6000610663826105f8565b61066d8185610603565b935061067883610614565b8060005b838110156106a95781516106908882610633565b975061069b8361064b565b92505060018101905061067c565b5085935050505092915050565b600060408201905081810360008301526106d0818561059a565b905081810360208301526106e48184610658565b90509392505050565b7f4e487b7100000000000000000000000000000000000000000000000000000000600052603260045260246000fd5b7f4e487b7100000000000000000000000000000000000000000000000000000000600052604160045260246000fd5b7f4e487b7100000000000000000000000000000000000000000000000000000000600052601160045260246000fd5b60006107858261049f565b91507fffffffffffffffffffffffffffffffffffffffffffffffffffffffffffffffff8214156107b8576107b761074b565b5b60018201905091905056fea264697066735822122017a393cad71b4181bd352c8996d90f2accae95391f9dbeab8b09d3f6cca5ee2664736f6c634300080a0033",
  "immutableReferences": {},
  "source": "// SPDX-License-Identifier: MIT\r\npragma solidity >=0.4.22 <0.9.0;\r\n\r\ncontract ToDoList {\r\n\r\n    struct ToDo {\r\n        bytes32 task;\r\n        bool isDone;\r\n    }\r\n\r\n    ToDo[] public todos;\r\n\r\n    function addToDo(bytes32 task, bool isDone) public returns (bool success){\r\n        ToDo memory item;\r\n        item.task = task;\r\n        item.isDone = isDone;\r\n\r\n        todos.push(item);\r\n        return true;\r\n    }\r\n\r\n    function getTodos() public returns (bytes32[] memory, bool[] memory){\r\n        uint length = todos.length;\r\n\r\n        bytes32[] memory taskList = new bytes32[](length);\r\n        bool[] memory isDoneList = new bool[](length);\r\n\r\n        uint i = 0;\r\n\r\n        for (i; i < todos.length; i++){\r\n            taskList[i] = todos[i].task;\r\n            isDoneList[i] = todos[i].isDone;\r\n        }\r\n\r\n        return(taskList, isDoneList);\r\n    }\r\n\r\n    function deleteToDo(uint index) public returns (bool success){\r\n        if (index>=todos.length) return false;\r\n        uint i = index;\r\n\r\n        // for (i; i < todos.length - 1; i++){\r\n        //     todos[i] = todos[i+1];\r\n        // }\r\n\r\n        delete todos[i];\r\n        return true;\r\n    }\r\n}",
  "sourcePath": "C:\\Users\\Administrador\\Desktop\\GitHub\\Solidity-Playground\\src\\contracts\\ToDoList.sol",
  "compiler": {
    "name": "solc",
    "version": "0.8.10+commit.fc410830.Emscripten.clang"
  },
  "schemaVersion": "3.4.3",
  "updatedAt": "2021-12-17T03:46:47.193Z",
  "devdoc": {
    "kind": "dev",
    "methods": {},
    "version": 1
  },
  "userdoc": {
    "kind": "user",
    "methods": {},
    "version": 1
  }
}